{"contracts/crud/ProductStore_1767847104.sol":{"ProductStore":{"abi":[{"anonymous":false,"inputs":[{"indexed":true,"internalType":"uint256","name":"productId","type":"uint256"},{"indexed":false,"internalType":"string","name":"name","type":"string"},{"indexed":false,"internalType":"uint256","name":"price","type":"uint256"}],"name":"ProductAdded","type":"event"},{"anonymous":false,"inputs":[{"indexed":true,"internalType":"uint256","name":"productId","type":"uint256"},{"indexed":false,"internalType":"address","name":"buyer","type":"address"},{"indexed":false,"internalType":"uint256","name":"amount","type":"uint256"}],"name":"ProductPurchased","type":"event"},{"anonymous":false,"inputs":[{"indexed":true,"internalType":"uint256","name":"productId","type":"uint256"}],"name":"ProductUpdated","type":"event"},{"inputs":[{"internalType":"string","name":"_name","type":"string"},{"internalType":"uint256","name":"_price","type":"uint256"},{"internalType":"uint256","name":"_stock","type":"uint256"}],"name":"addProduct","outputs":[{"internalType":"uint256","name":"","type":"uint256"}],"stateMutability":"nonpayable","type":"function"},{"inputs":[],"name":"productCount","outputs":[{"internalType":"uint256","name":"","type":"uint256"}],"stateMutability":"view","type":"function"},{"inputs":[{"internalType":"uint256","name":"","type":"uint256"}],"name":"products","outputs":[{"internalType":"uint256","name":"id","type":"uint256"},{"internalType":"string","name":"name","type":"string"},{"internalType":"uint256","name":"price","type":"uint256"},{"internalType":"uint256","name":"stock","type":"uint256"},{"internalType":"address","name":"owner","type":"address"},{"internalType":"bool","name":"isAvailable","type":"bool"}],"stateMutability":"view","type":"function"},{"inputs":[{"internalType":"uint256","name":"_id","type":"uint256"},{"internalType":"uint256","name":"_quantity","type":"uint256"}],"name":"purchaseProduct","outputs":[],"stateMutability":"payable","type":"function"},{"inputs":[{"internalType":"uint256","name":"_id","type":"uint256"},{"internalType":"uint256","name":"_price","type":"uint256"},{"internalType":"uint256","name":"_stock","type":"uint256"}],"name":"updateProduct","outputs":[],"stateMutability":"nonpayable","type":"function"}],"evm":{"bytecode":{"linkReferences":{},"object":"608060405234801561001057600080fd5b506108d1806100206000396000f3fe60806040526004361061004a5760003560e01c8063125b0b341461004f5780637acc0b2014610082578063a0440426146100b4578063e0f6ef87146100c9578063f85292ca146100df575b600080fd5b34801561005b57600080fd5b5061006f61006a366004610515565b6100ff565b6040519081526020015b60405180910390f35b34801561008e57600080fd5b506100a261009d3660046105d9565b610203565b60405161007996959493929190610638565b6100c76100c2366004610681565b6102d1565b005b3480156100d557600080fd5b5061006f60015481565b3480156100eb57600080fd5b506100c76100fa3660046106a3565b610463565b6001805460009182610110836106e5565b90915550506040805160c0810182526001805480835260208084018981528486018990526060850188905233608086015260a085018490526000928352908290529390208251815592519192919082019061016b9082610789565b5060408281015160028301556060830151600383015560808301516004909201805460a0909401511515600160a01b026001600160a81b03199094166001600160a01b039093169290921792909217905560015490517fcca07c742c5274e8b72111ba69566aa4442450bfc50bd897ea38d0170d1accfc906101f09087908790610849565b60405180910390a2506001549392505050565b60006020819052908152604090208054600182018054919291610225906106fe565b80601f0160208091040260200160405190810160405280929190818152602001828054610251906106fe565b801561029e5780601f106102735761010080835404028352916020019161029e565b820191906000526020600020905b81548152906001019060200180831161028157829003601f168201915b5050505060028301546003840154600490940154929390929091506001600160a01b03811690600160a01b900460ff1686565b60008281526020819052604090206004810154600160a01b900460ff1661032f5760405162461bcd60e51b815260206004820152600d60248201526c4e6f7420617661696c61626c6560981b60448201526064015b60405180910390fd5b81816003015410156103785760405162461bcd60e51b8152602060048201526012602482015271496e73756666696369656e742073746f636b60701b6044820152606401610326565b818160020154610388919061086b565b3410156103ce5760405162461bcd60e51b8152602060048201526014602482015273125b9cdd59999a58da595b9d081c185e5b595b9d60621b6044820152606401610326565b818160030160008282546103e29190610888565b9091555050604080513381526020810184905284917fa530f889d7f1bd9a73028e48944ca013ab2c6624a31e3fa26f923f4bb719abd5910160405180910390a260048101546040516001600160a01b03909116903480156108fc02916000818181858888f1935050505015801561045d573d6000803e3d6000fd5b50505050565b6000838152602081905260409020600401546001600160a01b031633146104b85760405162461bcd60e51b81526020600482015260096024820152682737ba1037bbb732b960b91b6044820152606401610326565b600083815260208190526040808220600281018590556003018390555184917feca6714fcf568fb34cf9db4a414cb0cc48e93c5d4e1ba0582a46ea3704cf24d591a2505050565b634e487b7160e01b600052604160045260246000fd5b60008060006060848603121561052a57600080fd5b833567ffffffffffffffff8082111561054257600080fd5b818601915086601f83011261055657600080fd5b813581811115610568576105686104ff565b604051601f8201601f19908116603f01168101908382118183101715610590576105906104ff565b816040528281528960208487010111156105a957600080fd5b82602086016020830137600060208483010152809750505050505060208401359150604084013590509250925092565b6000602082840312156105eb57600080fd5b5035919050565b6000815180845260005b81811015610618576020818501810151868301820152016105fc565b506000602082860101526020601f19601f83011685010191505092915050565b86815260c06020820152600061065160c08301886105f2565b60408301969096525060608101939093526001600160a01b03919091166080830152151560a09091015292915050565b6000806040838503121561069457600080fd5b50508035926020909101359150565b6000806000606084860312156106b857600080fd5b505081359360208301359350604090920135919050565b634e487b7160e01b600052601160045260246000fd5b6000600182016106f7576106f76106cf565b5060010190565b600181811c9082168061071257607f821691505b60208210810361073257634e487b7160e01b600052602260045260246000fd5b50919050565b601f821115610784576000816000526020600020601f850160051c810160208610156107615750805b601f850160051c820191505b818110156107805782815560010161076d565b5050505b505050565b815167ffffffffffffffff8111156107a3576107a36104ff565b6107b7816107b184546106fe565b84610738565b602080601f8311600181146107ec57600084156107d45750858301515b600019600386901b1c1916600185901b178555610780565b600085815260208120601f198616915b8281101561081b578886015182559484019460019091019084016107fc565b50858210156108395787850151600019600388901b60f8161c191681555b5050505050600190811b01905550565b60408152600061085c60408301856105f2565b90508260208301529392505050565b8082028115828204841417610882576108826106cf565b92915050565b81810381811115610882576108826106cf56fea26469706673582212208ff0cf95196b26d6df172b218b6b9100163e45dfc9fc8dfce78d9e7655f4efec64736f6c63430008180033","opcodes":"PUSH1 0x80 PUSH1 0x40 MSTORE CALLVALUE DUP1 ISZERO PUSH2 0x10 JUMPI PUSH1 0x0 DUP1 REVERT JUMPDEST POP PUSH2 0x8D1 DUP1 PUSH2 0x20 PUSH1 0x0 CODECOPY PUSH1 0x0 RETURN INVALID PUSH1 0x80 PUSH1 0x40 MSTORE PUSH1 0x4 CALLDATASIZE LT PUSH2 0x4A JUMPI PUSH1 0x0 CALLDATALOAD PUSH1 0xE0 SHR DUP1 PUSH4 0x125B0B34 EQ PUSH2 0x4F JUMPI DUP1 PUSH4 0x7ACC0B20 EQ PUSH2 0x82 JUMPI DUP1 PUSH4 0xA0440426 EQ PUSH2 0xB4 JUMPI DUP1 PUSH4 0xE0F6EF87 EQ PUSH2 0xC9 JUMPI DUP1 PUSH4 0xF85292CA EQ PUSH2 0xDF JUMPI JUMPDEST PUSH1 0x0 DUP1 REVERT JUMPDEST CALLVALUE DUP1 ISZERO PUSH2 0x5B JUMPI PUSH1 0x0 DUP1 REVERT JUMPDEST POP PUSH2 0x6F PUSH2 0x6A CALLDATASIZE PUSH1 0x4 PUSH2 0x515 JUMP JUMPDEST PUSH2 0xFF JUMP JUMPDEST PUSH1 0x40 MLOAD SWAP1 DUP2 MSTORE PUSH1 0x20 ADD JUMPDEST PUSH1 0x40 MLOAD DUP1 SWAP2 SUB SWAP1 RETURN JUMPDEST CALLVALUE DUP1 ISZERO PUSH2 0x8E JUMPI PUSH1 0x0 DUP1 REVERT JUMPDEST POP PUSH2 0xA2 PUSH2 0x9D CALLDATASIZE PUSH1 0x4 PUSH2 0x5D9 JUMP JUMPDEST PUSH2 0x203 JUMP JUMPDEST PUSH1 0x40 MLOAD PUSH2 0x79 SWAP7 SWAP6 SWAP5 SWAP4 SWAP3 SWAP2 SWAP1 PUSH2 0x638 JUMP JUMPDEST PUSH2 0xC7 PUSH2 0xC2 CALLDATASIZE PUSH1 0x4 PUSH2 0x681 JUMP JUMPDEST PUSH2 0x2D1 JUMP JUMPDEST STOP JUMPDEST CALLVALUE DUP1 ISZERO PUSH2 0xD5 JUMPI PUSH1 0x0 DUP1 REVERT JUMPDEST POP PUSH2 0x6F PUSH1 0x1 SLOAD DUP2 JUMP JUMPDEST CALLVALUE DUP1 ISZERO PUSH2 0xEB JUMPI PUSH1 0x0 DUP1 REVERT JUMPDEST POP PUSH2 0xC7 PUSH2 0xFA CALLDATASIZE PUSH1 0x4 PUSH2 0x6A3 JUMP JUMPDEST PUSH2 0x463 JUMP JUMPDEST PUSH1 0x1 DUP1 SLOAD PUSH1 0x0 SWAP2 DUP3 PUSH2 0x110 DUP4 PUSH2 0x6E5 JUMP JUMPDEST SWAP1 SWAP2 SSTORE POP POP PUSH1 0x40 DUP1 MLOAD PUSH1 0xC0 DUP2 ADD DUP3 MSTORE PUSH1 0x1 DUP1 SLOAD DUP1 DUP4 MSTORE PUSH1 0x20 DUP1 DUP5 ADD DUP10 DUP2 MSTORE DUP5 DUP7 ADD DUP10 SWAP1 MSTORE PUSH1 0x60 DUP6 ADD DUP9 SWAP1 MSTORE CALLER PUSH1 0x80 DUP7 ADD MSTORE PUSH1 0xA0 DUP6 ADD DUP5 SWAP1 MSTORE PUSH1 0x0 SWAP3 DUP4 MSTORE SWAP1 DUP3 SWAP1 MSTORE SWAP4 SWAP1 KECCAK256 DUP3 MLOAD DUP2 SSTORE SWAP3 MLOAD SWAP2 SWAP3 SWAP2 SWAP1 DUP3 ADD SWAP1 PUSH2 0x16B SWAP1 DUP3 PUSH2 0x789 JUMP JUMPDEST POP PUSH1 0x40 DUP3 DUP2 ADD MLOAD PUSH1 0x2 DUP4 ADD SSTORE PUSH1 0x60 DUP4 ADD MLOAD PUSH1 0x3 DUP4 ADD SSTORE PUSH1 0x80 DUP4 ADD MLOAD PUSH1 0x4 SWAP1 SWAP3 ADD DUP1 SLOAD PUSH1 0xA0 SWAP1 SWAP5 ADD MLOAD ISZERO ISZERO PUSH1 0x1 PUSH1 0xA0 SHL MUL PUSH1 0x1 PUSH1 0x1 PUSH1 0xA8 SHL SUB NOT SWAP1 SWAP5 AND PUSH1 0x1 PUSH1 0x1 PUSH1 0xA0 SHL SUB SWAP1 SWAP4 AND SWAP3 SWAP1 SWAP3 OR SWAP3 SWAP1 SWAP3 OR SWAP1 SSTORE PUSH1 0x1 SLOAD SWAP1 MLOAD PUSH32 0xCCA07C742C5274E8B72111BA69566AA4442450BFC50BD897EA38D0170D1ACCFC SWAP1 PUSH2 0x1F0 SWAP1 DUP8 SWAP1 DUP8 SWAP1 PUSH2 0x849 JUMP JUMPDEST PUSH1 0x40 MLOAD DUP1 SWAP2 SUB SWAP1 LOG2 POP PUSH1 0x1 SLOAD SWAP4 SWAP3 POP POP POP JUMP JUMPDEST PUSH1 0x0 PUSH1 0x20 DUP2 SWAP1 MSTORE SWAP1 DUP2 MSTORE PUSH1 0x40 SWAP1 KECCAK256 DUP1 SLOAD PUSH1 0x1 DUP3 ADD DUP1 SLOAD SWAP2 SWAP3 SWAP2 PUSH2 0x225 SWAP1 PUSH2 0x6FE JUMP JUMPDEST DUP1 PUSH1 0x1F ADD PUSH1 0x20 DUP1 SWAP2 DIV MUL PUSH1 0x20 ADD PUSH1 0x40 MLOAD SWAP1 DUP2 ADD PUSH1 0x40 MSTORE DUP1 SWAP3 SWAP2 SWAP1 DUP2 DUP2 MSTORE PUSH1 0x20 ADD DUP3 DUP1 SLOAD PUSH2 0x251 SWAP1 PUSH2 0x6FE JUMP JUMPDEST DUP1 ISZERO PUSH2 0x29E JUMPI DUP1 PUSH1 0x1F LT PUSH2 0x273 JUMPI PUSH2 0x100 DUP1 DUP4 SLOAD DIV MUL DUP4 MSTORE SWAP2 PUSH1 0x20 ADD SWAP2 PUSH2 0x29E JUMP JUMPDEST DUP3 ADD SWAP2 SWAP1 PUSH1 0x0 MSTORE PUSH1 0x20 PUSH1 0x0 KECCAK256 SWAP1 JUMPDEST DUP2 SLOAD DUP2 MSTORE SWAP1 PUSH1 0x1 ADD SWAP1 PUSH1 0x20 ADD DUP1 DUP4 GT PUSH2 0x281 JUMPI DUP3 SWAP1 SUB PUSH1 0x1F AND DUP3 ADD SWAP2 JUMPDEST POP POP POP POP PUSH1 0x2 DUP4 ADD SLOAD PUSH1 0x3 DUP5 ADD SLOAD PUSH1 0x4 SWAP1 SWAP5 ADD SLOAD SWAP3 SWAP4 SWAP1 SWAP3 SWAP1 SWAP2 POP PUSH1 0x1 PUSH1 0x1 PUSH1 0xA0 SHL SUB DUP2 AND SWAP1 PUSH1 0x1 PUSH1 0xA0 SHL SWAP1 DIV PUSH1 0xFF AND DUP7 JUMP JUMPDEST PUSH1 0x0 DUP3 DUP2 MSTORE PUSH1 0x20 DUP2 SWAP1 MSTORE PUSH1 0x40 SWAP1 KECCAK256 PUSH1 0x4 DUP2 ADD SLOAD PUSH1 0x1 PUSH1 0xA0 SHL SWAP1 DIV PUSH1 0xFF AND PUSH2 0x32F JUMPI PUSH1 0x40 MLOAD PUSH3 0x461BCD PUSH1 0xE5 SHL DUP2 MSTORE PUSH1 0x20 PUSH1 0x4 DUP3 ADD MSTORE PUSH1 0xD PUSH1 0x24 DUP3 ADD MSTORE PUSH13 0x4E6F7420617661696C61626C65 PUSH1 0x98 SHL PUSH1 0x44 DUP3 ADD MSTORE PUSH1 0x64 ADD JUMPDEST PUSH1 0x40 MLOAD DUP1 SWAP2 SUB SWAP1 REVERT JUMPDEST DUP2 DUP2 PUSH1 0x3 ADD SLOAD LT ISZERO PUSH2 0x378 JUMPI PUSH1 0x40 MLOAD PUSH3 0x461BCD PUSH1 0xE5 SHL DUP2 MSTORE PUSH1 0x20 PUSH1 0x4 DUP3 ADD MSTORE PUSH1 0x12 PUSH1 0x24 DUP3 ADD MSTORE PUSH18 0x496E73756666696369656E742073746F636B PUSH1 0x70 SHL PUSH1 0x44 DUP3 ADD MSTORE PUSH1 0x64 ADD PUSH2 0x326 JUMP JUMPDEST DUP2 DUP2 PUSH1 0x2 ADD SLOAD PUSH2 0x388 SWAP2 SWAP1 PUSH2 0x86B JUMP JUMPDEST CALLVALUE LT ISZERO PUSH2 0x3CE JUMPI PUSH1 0x40 MLOAD PUSH3 0x461BCD PUSH1 0xE5 SHL DUP2 MSTORE PUSH1 0x20 PUSH1 0x4 DUP3 ADD MSTORE PUSH1 0x14 PUSH1 0x24 DUP3 ADD MSTORE PUSH20 0x125B9CDD59999A58DA595B9D081C185E5B595B9D PUSH1 0x62 SHL PUSH1 0x44 DUP3 ADD MSTORE PUSH1 0x64 ADD PUSH2 0x326 JUMP JUMPDEST DUP2 DUP2 PUSH1 0x3 ADD PUSH1 0x0 DUP3 DUP3 SLOAD PUSH2 0x3E2 SWAP2 SWAP1 PUSH2 0x888 JUMP JUMPDEST SWAP1 SWAP2 SSTORE POP POP PUSH1 0x40 DUP1 MLOAD CALLER DUP2 MSTORE PUSH1 0x20 DUP2 ADD DUP5 SWAP1 MSTORE DUP5 SWAP2 PUSH32 0xA530F889D7F1BD9A73028E48944CA013AB2C6624A31E3FA26F923F4BB719ABD5 SWAP2 ADD PUSH1 0x40 MLOAD DUP1 SWAP2 SUB SWAP1 LOG2 PUSH1 0x4 DUP2 ADD SLOAD PUSH1 0x40 MLOAD PUSH1 0x1 PUSH1 0x1 PUSH1 0xA0 SHL SUB SWAP1 SWAP2 AND SWAP1 CALLVALUE DUP1 ISZERO PUSH2 0x8FC MUL SWAP2 PUSH1 0x0 DUP2 DUP2 DUP2 DUP6 DUP9 DUP9 CALL SWAP4 POP POP POP POP ISZERO DUP1 ISZERO PUSH2 0x45D JUMPI RETURNDATASIZE PUSH1 0x0 DUP1 RETURNDATACOPY RETURNDATASIZE PUSH1 0x0 REVERT JUMPDEST POP POP POP POP JUMP JUMPDEST PUSH1 0x0 DUP4 DUP2 MSTORE PUSH1 0x20 DUP2 SWAP1 MSTORE PUSH1 0x40 SWAP1 KECCAK256 PUSH1 0x4 ADD SLOAD PUSH1 0x1 PUSH1 0x1 PUSH1 0xA0 SHL SUB AND CALLER EQ PUSH2 0x4B8 JUMPI PUSH1 0x40 MLOAD PUSH3 0x461BCD PUSH1 0xE5 SHL DUP2 MSTORE PUSH1 0x20 PUSH1 0x4 DUP3 ADD MSTORE PUSH1 0x9 PUSH1 0x24 DUP3 ADD MSTORE PUSH9 0x2737BA1037BBB732B9 PUSH1 0xB9 SHL PUSH1 0x44 DUP3 ADD MSTORE PUSH1 0x64 ADD PUSH2 0x326 JUMP JUMPDEST PUSH1 0x0 DUP4 DUP2 MSTORE PUSH1 0x20 DUP2 SWAP1 MSTORE PUSH1 0x40 DUP1 DUP3 KECCAK256 PUSH1 0x2 DUP2 ADD DUP6 SWAP1 SSTORE PUSH1 0x3 ADD DUP4 SWAP1 SSTORE MLOAD DUP5 SWAP2 PUSH32 0xECA6714FCF568FB34CF9DB4A414CB0CC48E93C5D4E1BA0582A46EA3704CF24D5 SWAP2 LOG2 POP POP POP JUMP JUMPDEST PUSH4 0x4E487B71 PUSH1 0xE0 SHL PUSH1 0x0 MSTORE PUSH1 0x41 PUSH1 0x4 MSTORE PUSH1 0x24 PUSH1 0x0 REVERT JUMPDEST PUSH1 0x0 DUP1 PUSH1 0x0 PUSH1 0x60 DUP5 DUP7 SUB SLT ISZERO PUSH2 0x52A JUMPI PUSH1 0x0 DUP1 REVERT JUMPDEST DUP4 CALLDATALOAD PUSH8 0xFFFFFFFFFFFFFFFF DUP1 DUP3 GT ISZERO PUSH2 0x542 JUMPI PUSH1 0x0 DUP1 REVERT JUMPDEST DUP2 DUP7 ADD SWAP2 POP DUP7 PUSH1 0x1F DUP4 ADD SLT PUSH2 0x556 JUMPI PUSH1 0x0 DUP1 REVERT JUMPDEST DUP2 CALLDATALOAD DUP2 DUP2 GT ISZERO PUSH2 0x568 JUMPI PUSH2 0x568 PUSH2 0x4FF JUMP JUMPDEST PUSH1 0x40 MLOAD PUSH1 0x1F DUP3 ADD PUSH1 0x1F NOT SWAP1 DUP2 AND PUSH1 0x3F ADD AND DUP2 ADD SWAP1 DUP4 DUP3 GT DUP2 DUP4 LT OR ISZERO PUSH2 0x590 JUMPI PUSH2 0x590 PUSH2 0x4FF JUMP JUMPDEST DUP2 PUSH1 0x40 MSTORE DUP3 DUP2 MSTORE DUP10 PUSH1 0x20 DUP5 DUP8 ADD ADD GT ISZERO PUSH2 0x5A9 JUMPI PUSH1 0x0 DUP1 REVERT JUMPDEST DUP3 PUSH1 0x20 DUP7 ADD PUSH1 0x20 DUP4 ADD CALLDATACOPY PUSH1 0x0 PUSH1 0x20 DUP5 DUP4 ADD ADD MSTORE DUP1 SWAP8 POP POP POP POP POP POP PUSH1 0x20 DUP5 ADD CALLDATALOAD SWAP2 POP PUSH1 0x40 DUP5 ADD CALLDATALOAD SWAP1 POP SWAP3 POP SWAP3 POP SWAP3 JUMP JUMPDEST PUSH1 0x0 PUSH1 0x20 DUP3 DUP5 SUB SLT ISZERO PUSH2 0x5EB JUMPI PUSH1 0x0 DUP1 REVERT JUMPDEST POP CALLDATALOAD SWAP2 SWAP1 POP JUMP JUMPDEST PUSH1 0x0 DUP2 MLOAD DUP1 DUP5 MSTORE PUSH1 0x0 JUMPDEST DUP2 DUP2 LT ISZERO PUSH2 0x618 JUMPI PUSH1 0x20 DUP2 DUP6 ADD DUP2 ADD MLOAD DUP7 DUP4 ADD DUP3 ADD MSTORE ADD PUSH2 0x5FC JUMP JUMPDEST POP PUSH1 0x0 PUSH1 0x20 DUP3 DUP7 ADD ADD MSTORE PUSH1 0x20 PUSH1 0x1F NOT PUSH1 0x1F DUP4 ADD AND DUP6 ADD ADD SWAP2 POP POP SWAP3 SWAP2 POP POP JUMP JUMPDEST DUP7 DUP2 MSTORE PUSH1 0xC0 PUSH1 0x20 DUP3 ADD MSTORE PUSH1 0x0 PUSH2 0x651 PUSH1 0xC0 DUP4 ADD DUP9 PUSH2 0x5F2 JUMP JUMPDEST PUSH1 0x40 DUP4 ADD SWAP7 SWAP1 SWAP7 MSTORE POP PUSH1 0x60 DUP2 ADD SWAP4 SWAP1 SWAP4 MSTORE PUSH1 0x1 PUSH1 0x1 PUSH1 0xA0 SHL SUB SWAP2 SWAP1 SWAP2 AND PUSH1 0x80 DUP4 ADD MSTORE ISZERO ISZERO PUSH1 0xA0 SWAP1 SWAP2 ADD MSTORE SWAP3 SWAP2 POP POP JUMP JUMPDEST PUSH1 0x0 DUP1 PUSH1 0x40 DUP4 DUP6 SUB SLT ISZERO PUSH2 0x694 JUMPI PUSH1 0x0 DUP1 REVERT JUMPDEST POP POP DUP1 CALLDATALOAD SWAP3 PUSH1 0x20 SWAP1 SWAP2 ADD CALLDATALOAD SWAP2 POP JUMP JUMPDEST PUSH1 0x0 DUP1 PUSH1 0x0 PUSH1 0x60 DUP5 DUP7 SUB SLT ISZERO PUSH2 0x6B8 JUMPI PUSH1 0x0 DUP1 REVERT JUMPDEST POP POP DUP2 CALLDATALOAD SWAP4 PUSH1 0x20 DUP4 ADD CALLDATALOAD SWAP4 POP PUSH1 0x40 SWAP1 SWAP3 ADD CALLDATALOAD SWAP2 SWAP1 POP JUMP JUMPDEST PUSH4 0x4E487B71 PUSH1 0xE0 SHL PUSH1 0x0 MSTORE PUSH1 0x11 PUSH1 0x4 MSTORE PUSH1 0x24 PUSH1 0x0 REVERT JUMPDEST PUSH1 0x0 PUSH1 0x1 DUP3 ADD PUSH2 0x6F7 JUMPI PUSH2 0x6F7 PUSH2 0x6CF JUMP JUMPDEST POP PUSH1 0x1 ADD SWAP1 JUMP JUMPDEST PUSH1 0x1 DUP2 DUP2 SHR SWAP1 DUP3 AND DUP1 PUSH2 0x712 JUMPI PUSH1 0x7F DUP3 AND SWAP2 POP JUMPDEST PUSH1 0x20 DUP3 LT DUP2 SUB PUSH2 0x732 JUMPI PUSH4 0x4E487B71 PUSH1 0xE0 SHL PUSH1 0x0 MSTORE PUSH1 0x22 PUSH1 0x4 MSTORE PUSH1 0x24 PUSH1 0x0 REVERT JUMPDEST POP SWAP2 SWAP1 POP JUMP JUMPDEST PUSH1 0x1F DUP3 GT ISZERO PUSH2 0x784 JUMPI PUSH1 0x0 DUP2 PUSH1 0x0 MSTORE PUSH1 0x20 PUSH1 0x0 KECCAK256 PUSH1 0x1F DUP6 ADD PUSH1 0x5 SHR DUP2 ADD PUSH1 0x20 DUP7 LT ISZERO PUSH2 0x761 JUMPI POP DUP1 JUMPDEST PUSH1 0x1F DUP6 ADD PUSH1 0x5 SHR DUP3 ADD SWAP2 POP JUMPDEST DUP2 DUP2 LT ISZERO PUSH2 0x780 JUMPI DUP3 DUP2 SSTORE PUSH1 0x1 ADD PUSH2 0x76D JUMP JUMPDEST POP POP POP JUMPDEST POP POP POP JUMP JUMPDEST DUP2 MLOAD PUSH8 0xFFFFFFFFFFFFFFFF DUP2 GT ISZERO PUSH2 0x7A3 JUMPI PUSH2 0x7A3 PUSH2 0x4FF JUMP JUMPDEST PUSH2 0x7B7 DUP2 PUSH2 0x7B1 DUP5 SLOAD PUSH2 0x6FE JUMP JUMPDEST DUP5 PUSH2 0x738 JUMP JUMPDEST PUSH1 0x20 DUP1 PUSH1 0x1F DUP4 GT PUSH1 0x1 DUP2 EQ PUSH2 0x7EC JUMPI PUSH1 0x0 DUP5 ISZERO PUSH2 0x7D4 JUMPI POP DUP6 DUP4 ADD MLOAD JUMPDEST PUSH1 0x0 NOT PUSH1 0x3 DUP7 SWAP1 SHL SHR NOT AND PUSH1 0x1 DUP6 SWAP1 SHL OR DUP6 SSTORE PUSH2 0x780 JUMP JUMPDEST PUSH1 0x0 DUP6 DUP2 MSTORE PUSH1 0x20 DUP2 KECCAK256 PUSH1 0x1F NOT DUP7 AND SWAP2 JUMPDEST DUP3 DUP2 LT ISZERO PUSH2 0x81B JUMPI DUP9 DUP7 ADD MLOAD DUP3 SSTORE SWAP5 DUP5 ADD SWAP5 PUSH1 0x1 SWAP1 SWAP2 ADD SWAP1 DUP5 ADD PUSH2 0x7FC JUMP JUMPDEST POP DUP6 DUP3 LT ISZERO PUSH2 0x839 JUMPI DUP8 DUP6 ADD MLOAD PUSH1 0x0 NOT PUSH1 0x3 DUP9 SWAP1 SHL PUSH1 0xF8 AND SHR NOT AND DUP2 SSTORE JUMPDEST POP POP POP POP POP PUSH1 0x1 SWAP1 DUP2 SHL ADD SWAP1 SSTORE POP JUMP JUMPDEST PUSH1 0x40 DUP2 MSTORE PUSH1 0x0 PUSH2 0x85C PUSH1 0x40 DUP4 ADD DUP6 PUSH2 0x5F2 JUMP JUMPDEST SWAP1 POP DUP3 PUSH1 0x20 DUP4 ADD MSTORE SWAP4 SWAP3 POP POP POP JUMP JUMPDEST DUP1 DUP3 MUL DUP2 ISZERO DUP3 DUP3 DIV DUP5 EQ OR PUSH2 0x882 JUMPI PUSH2 0x882 PUSH2 0x6CF JUMP JUMPDEST SWAP3 SWAP2 POP POP JUMP JUMPDEST DUP2 DUP2 SUB DUP2 DUP2 GT ISZERO PUSH2 0x882 JUMPI PUSH2 0x882 PUSH2 0x6CF JUMP INVALID LOG2 PUSH5 0x6970667358 0x22 SLT KECCAK256 DUP16 CREATE 0xCF SWAP6 NOT PUSH12 0x26D6DF172B218B6B9100163E GASLIMIT 0xDF 0xC9 0xFC DUP14 0xFC 0xE7 DUP14 SWAP15 PUSH23 0x55F4EFEC64736F6C634300081800330000000000000000 "},"methodIdentifiers":{"addProduct(string,uint256,uint256)":"125b0b34","productCount()":"e0f6ef87","products(uint256)":"7acc0b20","purchaseProduct(uint256,uint256)":"a0440426","updateProduct(uint256,uint256,uint256)":"f85292ca"}}}}}